:020000040800F2
:1000000000000220ADCE000861950008639500084D
:1000100065950008679500086995000800000000D4
:100020000000000000000000000000006B950008C8
:100030006D950008000000006F950008719500089C
:10004000FDCE0008FDCE0008FDCE0008FDCE000864
:10005000FDCE0008FDCE0008FDCE0008FDCE000854
:10006000FDCE0008FDCE0008FDCE0008FDCE000844
:100070007D950008FDCE00088D950008FDCE000896
:100080009D950008AD950008FDCE0008FDCE000846
:10009000BD950008FDCE0008FDCE0008CD950008F6
:1000A000FDCE0008FDCE0008FDCE0008FDCE000804
:1000B000FDCE0008FDCE0008E9950008FDCE000841
:1000C000FDCE0008FDCE0008FDCE0008FDCE0008E4
:1000D000FDCE0008FDCE0008F9950008099600083D
:1000E00019960008FDCE0008FDCE0008FDCE0008E0
:1000F000FDCE0008FDCE0008FDCE0008FDCE0008B4
:10010000FDCE0008FDCE0008FDCE0008FDCE0008A3
:10011000FDCE0008FDCE0008FDCE0008FDCE000893
:10012000FDCE0008FDCE0008FDCE0008FDCE000883
:10013000FDCE0008FDCE0008FDCE0008FDCE000873
:10014000FDCE0008FDCE0008FDCE0008FDCE000863
:10015000FDCE00082D960008FDCE00083D96000853
:10016000FDCE0008FDCE0008FDCE0008FDCE000843
:10017000FDCE0008FDCE0008FDCE00080000000006
:08018000FDCE0008FDCE0008D1
:1001900010B5054C237833B9044B13B10448AFF3C1
:1001A00000800123237010BD6805002000000000BE
:1001B000E0EF000808B5034B1BB103490348AFF358
:1001C000008008BD000000006C050020E0EF000882
:1001D00081F0004102E000BF83F0004330B54FEAF8
:1001E00041044FEA430594EA050F08BF90EA020F65
:1001F0001FBF54EA000C55EA020C7FEA645C7FEAF8
:10020000655C00F0E2804FEA5454D4EB5555B8BF1A
:100210006D420CDD2C4480EA020281EA030382EA8B
:10022000000083EA010180EA020281EA0303362D1D
:1002300088BF30BD11F0004F4FEA01314FF4801CF0
:100240004CEA113102D0404261EB410113F0004F02
:100250004FEA03334CEA133302D0524263EB4303B9
:1002600094EA050F00F0A780A4F10104D5F1200E57
:100270000DDB02FA0EFC22FA05F2801841F10001B2
:1002800003FA0EF2801843FA05F359410EE0A5F186
:1002900020050EF1200E012A03FA0EFC28BF4CF0B7
:1002A000020C43FA05F3C01851EBE37101F000456D
:1002B00007D54FF0000EDCF1000C7EEB00006EEB7A
:1002C0000101B1F5801F1BD3B1F5001F0CD3490804
:1002D0005FEA30004FEA3C0C04F101044FEA44525B
:1002E00012F5800F80F09A80BCF1004F08BF5FEAE2
:1002F000500C50F1000041EB045141EA050130BDC2
:100300005FEA4C0C404141EB010111F4801FA4F164
:100310000104E9D191F0000F04BF01460020B1FAB9
:1003200081F308BF2033A3F10B03B3F120020CDAF1
:100330000C3208DD02F1140CC2F10C0201FA0CF0CF
:1003400021FA02F10CE002F11402D8BFC2F1200C34
:1003500001FA02F120FA0CFCDCBF41EA0C019040EA
:10036000E41AA2BF01EB0451294330BD6FEA040433
:100370001F3C1CDA0C340EDC04F11404C4F120021E
:1003800020FA04F001FA02F340EA030021FA04F330
:1003900045EA030130BDC4F10C04C4F1200220FA87
:1003A00002F001FA04F340EA0300294630BD21FAC5
:1003B00004F0294630BD94F0000F83F4801306BF8B
:1003C00081F480110134013D4EE77FEA645C18BF7F
:1003D0007FEA655C29D094EA050F08BF90EA020F16
:1003E00005D054EA000C04BF1946104630BD91EA0E
:1003F000030F1EBF0021002030BD5FEA545C05D111
:100400004000494128BF41F0004130BD14F580044F
:100410003CBF01F5801130BD01F0004545F0FE41C3
:1004200041F470014FF0000030BD7FEA645C1ABFF8
:10043000194610467FEA655C1CBF0B46024650EA2F
:10044000013406BF52EA033591EA030F41F400215B
:1004500030BD00BF90F0000F04BF0021704730B5E1
:100460004FF4806404F132044FF000054FF00001B6
:1004700050E700BF90F0000F04BF0021704730B577
:100480004FF4806404F1320410F0004548BF40424C
:100490004FF000013EE700BF42004FEAE2014FEAA1
:1004A00031014FEA02701FBF12F07F4393F07F4F7C
:1004B00081F06051704732F07F4208BF704793F07F
:1004C0007F4F04BF41F40021704730B54FF4607492
:1004D00001F0004521F000411CE700BF50EA010295
:1004E00008BF704730B54FF000050AE050EA01023E
:1004F00008BF704730B511F0004502D5404261EBAE
:1005000041014FF4806404F132045FEA915C3FF4EE
:10051000D8AE4FF003025FEADC0C18BF03325FEA8B
:10052000DC0C18BF033202EBDC02C2F1200300FA3C
:1005300003FC20FA02F001FA03FE40EA0E0021FA61
:1005400002F11444BDE600BF70B54FF0FF0C4CF44F
:10055000E06C1CEA11541DBF1CEA135594EA0C0F01
:1005600095EA0C0F00F0DEF82C4481EA030621EA3C
:100570004C5123EA4C5350EA013518BF52EA033577
:1005800041F4801143F4801338D0A0FB02CE4FF029
:100590000005E1FB02E506F00042E0FB03E54FF059
:1005A0000006E1FB03569CF0000F18BF4EF0010E51
:1005B000A4F1FF04B6F5007F64F5407404D25FEA4D
:1005C0004E0E6D4146EB060642EAC62141EA555100
:1005D0004FEAC52040EA5E504FEACE2EB4F1FD0C42
:1005E00088BFBCF5E06F1ED8BEF1004F08BF5FEAC0
:1005F000500E50F1000041EB045170BD06F0004672
:1006000046EA010140EA020081EA0301B4EB5C041E
:10061000C2BFD4EB0C0541EA045170BD41F4801116
:100620004FF0000E013C00F3AB8014F1360FDEBF3B
:10063000002001F0004170BDC4F10004203C35DA17
:100640000C341BDC04F11404C4F1200500FA05F39A
:1006500020FA04F001FA05F240EA020001F000423B
:1006600021F0004110EBD37021FA04F642EB0601B1
:100670005EEA430E08BF20EAD37070BDC4F10C04DB
:10068000C4F1200500FA04F320FA05F001FA04F29F
:1006900040EA020001F0004110EBD37041F100018B
:1006A0005EEA430E08BF20EAD37070BDC4F1200596
:1006B00000FA05F24EEA020E20FA04F301FA05F2FE
:1006C00043EA020321FA04F001F0004121FA04F2A6
:1006D00020EA020000EBD3705EEA430E08BF20EA76
:1006E000D37070BD94F0000F0FD101F000464000B0
:1006F00041EB010111F4801F08BF013CF7D041EA32
:10070000060195F0000F18BF704703F00046520035
:1007100043EB030313F4801F08BF013DF7D043EA06
:100720000603704794EA0C0F0CEA135518BF95EABC
:100730000C0F0CD050EA410618BF52EA4306D1D143
:1007400081EA030101F000414FF0000070BD50EA62
:10075000410606BF1046194652EA430619D094EAEC
:100760000C0F02D150EA013613D195EA0C0F05D1D6
:1007700052EA03361CBF104619460AD181EA03012A
:1007800001F0004141F0FE4141F470014FF00000E2
:1007900070BD41F0FE4141F4780170BD70B54FF07D
:1007A000FF0C4CF4E06C1CEA11541DBF1CEA1355FD
:1007B00094EA0C0F95EA0C0F00F0A7F8A4EB0504DF
:1007C00081EA030E52EA03354FEA013100F08880D6
:1007D0004FEA03334FF0805545EA131343EA12639F
:1007E0004FEA022245EA111545EA10654FEA002654
:1007F0000EF000419D4208BF964244F1FD0404F50D
:10080000407402D25B084FEA3202B61A65EB030568
:100810005B084FEA32024FF480104FF4002CB6EB25
:10082000020E75EB030E22BFB61A754640EA0C00A5
:100830005B084FEA3202B6EB020E75EB030E22BFE5
:10084000B61A754640EA5C005B084FEA3202B6EB26
:10085000020E75EB030E22BFB61A754640EA9C00E5
:100860005B084FEA3202B6EB020E75EB030E22BFB5
:10087000B61A754640EADC0055EA060E18D04FEA73
:10088000051545EA16754FEA06164FEAC30343EA13
:1008900052734FEAC2025FEA1C1CC0D111F4801FE0
:1008A0000BD141EA00014FF000004FF0004CB6E7D9
:1008B00011F4801F04BF01430020B4F1FD0C88BF78
:1008C000BCF5E06F3FF6AFAEB5EB030C04BFB6EB83
:1008D000020C5FEA500C50F1000041EB045170BD76
:1008E0000EF0004E4EEA113114EB5C04C2BFD4EBA3
:1008F0000C0541EA045170BD41F480114FF0000E27
:10090000013C90E645EA060E8DE60CEA135594EAA2
:100910000C0F08BF95EA0C0F3FF43BAF94EA0C0FA5
:100920000AD150EA01347FF434AF95EA0C0F7FF41A
:1009300025AF104619462CE795EA0C0F06D152EA6E
:1009400003353FF4FDAE1046194622E750EA410652
:1009500018BF52EA43067FF4C5AE50EA41047FF463
:100960000DAF52EA43057FF4EBAE12E74FF0FF3CC8
:1009700006E000BF4FF0010C02E000BF4FF0010C99
:100980004DF804CD4FEA410C7FEA6C5C4FEA430C12
:1009900018BF7FEA6C5C1BD001B050EA410C0CBF61
:1009A00052EA430C91EA030F02BF90EA020F0020C3
:1009B000704710F1000F91EA030F58BF994208BF2A
:1009C00090422CBFD8176FEAE37040F001007047E7
:1009D0004FEA410C7FEA6C5C02D150EA013C07D13E
:1009E0004FEA430C7FEA6C5CD6D152EA033CD3D089
:1009F0005DF8040B704700BF8446104662468C4683
:100A00001946634600E000BF01B5FFF7B7FF0028B5
:100A100048BF10F1000F01BD4DF808EDFFF7F4FFDE
:100A20000CBF012000205DF808FB00BF4DF808ED69
:100A3000FFF7EAFF34BF012000205DF808FB00BF8C
:100A40004DF808EDFFF7E0FF94BF012000205DF8AE
:100A500008FB00BF4DF808EDFFF7CEFF94BF012063
:100A600000205DF808FB00BF4DF808EDFFF7C4FF5C
:100A700034BF012000205DF808FB00BF4FEA4102AF
:100A800012F5001215D211D56FF47873B3EB6252E0
:100A900012D94FEAC12343F0004343EA505311F007
:100AA000004F23FA02F018BF404270474FF0000099
:100AB000704750EA013005D111F0004008BF6FF0D7
:100AC000004070474FF00000704700BF4A0011D24D
:100AD00012F5001211D20DD56FF47873B3EB625298
:100AE0000ED44FEAC12343F0004343EA505323FAA4
:100AF00002F070474FF00000704750EA013002D119
:100B00004FF0FF3070474FF00000704780F000401A
:100B100002E000BF81F0004142001FBF5FEA4103D5
:100B200092EA030F7FEA226C7FEA236C6AD04FEAD5
:100B30001262D2EB1363C1BFD2184140484041401A
:100B4000B8BF5B42192B88BF704710F0004F40F4CC
:100B5000000020F07F4018BF404211F0004F41F4E8
:100B6000000121F07F4118BF494292EA030F3FD0B4
:100B7000A2F1010241FA03FC10EB0C00C3F12003C7
:100B800001FA03F100F0004302D5494260EB400056
:100B9000B0F5000F13D3B0F1807F06D340084FEAC1
:100BA000310102F10102FE2A51D2B1F1004F40EBB6
:100BB000C25008BF20F0010040EA0300704749001E
:100BC00040EB000010F4000FA2F10102EDD1B0FAE9
:100BD00080FCACF1080CB2EB0C0200FA0CF0AABFDE
:100BE00000EBC25052421843BCBFD040184370477C
:100BF00092F0000F81F4000106BF80F40000013282
:100C0000013BB5E74FEA41037FEA226C18BF7FEA58
:100C1000236C21D092EA030F04D092F0000F08BF9A
:100C20000846704790EA010F1CBF0020704712F081
:100C30007F4F04D1400028BF40F00040704712F1C0
:100C400000723CBF00F50000704700F0004343F025
:100C5000FE4040F4000070477FEA226216BF08465B
:100C60007FEA23630146420206BF5FEA412390EA1E
:100C7000010F40F4800070474FF0000304E000BF14
:100C800010F0004348BF40425FEA000C08BF7047C5
:100C900043F0964301464FF000001CE050EA010289
:100CA00008BF70474FF000030AE000BF50EA01029E
:100CB00008BF704711F0004302D5404261EB41018B
:100CC0005FEA010C02BF84460146002043F0B643B0
:100CD00008BFA3F18053A3F50003BCFA8CF2083AD5
:100CE000A3EBC25310DB01FA02FC634400FA02FCDE
:100CF000C2F12002BCF1004F20FA02F243EB0200E5
:100D000008BF20F00100704702F1200201FA02FC46
:100D1000C2F1200250EA4C0021FA02F243EB020039
:100D200008BF20EADC70704753B94AB9002908BFF0
:100D300000281CBF4FF0FF314FF0FF3000F072B9B8
:100D4000ADF1080C6DE904CE00F006F8DDF804E022
:100D5000DDE9022304B070472DE9F047089E044600
:100D60008846002B4BD18A42154667D9B2FA82F2E7
:100D70004AB1C2F1200701FA02F320FA07F79540C1
:100D800047EA030894404FEA154E230CB8FBFEF7E0
:100D90001FFA85FC0EFB178843EA084307FB0CF19A
:100DA000994209D9EB1807F1FF3080F01B81994275
:100DB00040F21881023F2B445B1AA4B2B3FBFEF051
:100DC0000EFB103344EA034400FB0CFCA44509D994
:100DD0002C1900F1FF3380F00781A44540F2048113
:100DE00002382C4440EA0740A4EB0C0400271EB153
:100DF000D4400023C6E900433946BDE8F0878B4262
:100E000009D9002E00F0EB800027C6E90001384622
:100E10003946BDE8F087B3FA83F7002F47D18B42FC
:100E200002D3824200F2FA80841A61EB03030120AC
:100E30009846002EE0D0C6E90048DDE702B9FFDEA3
:100E4000B2FA82F2002A40F08F80491B4FEA154E19
:100E50001FFA85F80127B1FBFEFC230C0EFB1C11C9
:100E600043EA014308FB0CF1994207D9EB180CF156
:100E7000FF3002D2994200F2CD808446591AA3B2C3
:100E8000B1FBFEF00EFB101443EA044408FB00F82B
:100E9000A04507D92C1900F1FF3302D2A04500F27A
:100EA000B6801846A4EB080440EA0C409FE7C7F15F
:100EB000200CBB4022FA0CFE4EEA030E01FA07F4A6
:100EC00020FA0CF521FA0CF34FEA1E482543B3FB38
:100ED000F8F92C0C08FB19331FFA8EFA44EA034385
:100EE00009FB0AF49C4202FA07F200FA07F10BD957
:100EF0001EEB030309F1FF3080F087809C4240F233
:100F00008480A9F1020973441B1BADB2B3FBF8F056
:100F100008FB103345EA034400FB0AFAA24508D94E
:100F20001EEB040400F1FF336BD2A24569D90238ED
:100F3000744440EA0940A0FB0289A4EB0A044C4532
:100F4000C2464B4654D351D0002E69D0B1EB0A05AE
:100F500064EB030404FA0CFCFD40FC404CEA05057C
:100F6000C6E90054002747E7C2F1200320FA03F73F
:100F7000954001FA02F021FA03F34FEA154E384387
:100F8000010CB3FBFEF71FFA85F80EFB173341EA9D
:100F9000034107FB08F38B4204FA02F407D96918EE
:100FA00007F1FF3C2FD28B422DD9023F2944CB1AA7
:100FB00081B2B3FBFEF00EFB103341EA034100FBAC
:100FC00008F38B4207D9691800F1FF3C17D28B4216
:100FD00015D902382944C91A40EA07473BE7374682
:100FE000304609E70746E7E61846FBE64145ABD23F
:100FF000B8EB020A69EB0E0201381346A4E760461B
:10100000E9E7184695E76746D1E781467CE702386D
:101010002C4447E7ACF1020C2B442FE7384608E795
:101020003746E9E6704700BF034613F8012B002A54
:10103000FBD1181A013870470000000000000000C2
:1010400001F0FF01102A2BDB10F0070F08D010F879
:10105000013B013A8B422DD010F0070F42B3F6D17D
:10106000F0B441EA012141EA014122F007047FF096
:1010700000070023F0E80256083C85EA010586EAED
:10108000010685FA47F5A3FA87F586FA47F6A5FA29
:1010900087F68EB9EED1F0BC01F0FF0102F0070235
:1010A00032B110F8013B013A83EA010313B1F8D1E0
:1010B0000020704701387047002D06BF35460338C1
:1010C000073815F0010F07D1013015F4807F02BFFA
:1010D000013015F4C03F0130F0BC0138704700BF4B
:1010E0004FEA410C7FEA6C5C02D150EA013C0AD124
:1010F0004FEA430C7FEA6C5C02D152EA033C02D116
:101100004FF0000070474FF00100704710B50446E3
:101110000E4B18784FF47A73B3FBF0F30C4A106857
:10112000B0FBF3F000F074FC68B90F2C01D901207A
:101130000AE0002221464FF0FF3000F027FC034B6D
:101140005C60002000E0012010BD00BF0000002016
:10115000D801002008B50B4B1A6842F400721A60DF
:101160001A6842F480621A601A6842F480721A6047
:10117000032000F0F9FB0020FFF7C8FF07F0FCFE9A
:10118000002008BD003C0240034A1168034B1B7855
:101190000B441360704700BFEC10002000000020DB
:1011A000014B1868704700BFEC100020002800F0C9
:1011B000A18038B5044690F82030D3B12268136876
:1011C00023F002031360FFF7EBFF054623685A681C
:1011D00012F0020F10D0FFF7E3FF401B0A28F5D9E9
:1011E000636A43F400336362052384F820300120EE
:1011F00038BD07F0DDFEE1E71A6842F001021A602F
:10120000FFF7CEFF054623685A6812F0010F0DD193
:10121000FFF7C6FF401B0A28F5D9636A43F4003381
:101220006362052384F820300120E1E7227E012A51
:101230003DD01A6822F080021A60637E012B3BD0F9
:101240002268136823F040031360A37E012B39D07A
:101250002268136823F020031360E37E012B37D04C
:101260002268136843F010031360237F012B35D0ED
:101270002268136823F008031360637F012B33D0C7
:101280002268136823F004031360A368E268134321
:1012900022691343626913436268013A2168134368
:1012A000CB6100206062012384F82030A0E71A6837
:1012B00042F080021A60C0E72268136843F04003DE
:1012C0001360C2E72268136843F020031360C4E789
:1012D0002268136823F010031360C6E722681368BE
:1012E00043F008031360C8E72268136843F004035F
:1012F0001360CAE70120704790F82030013BDBB251
:10130000012B05D9436A43F48023436201207047CF
:1013100070B4434BD3F8002242F00102C3F800221C
:10132000D3F8002222F47C52C3F80022D3F8002222
:10133000486A42EA0022C3F800224A6902F01F020A
:10134000012000FA02F2D3F81C42D0430440C3F853
:101350001C42CB69B3B9324BD3F80C420440C3F8FA
:101360000C42CE688D884C6945EA0645483443F8FE
:1013700034508E680C884D6944EA0644483503EBC6
:10138000C5035C60CB69012B1DD08B69002B32D16A
:10139000234CD4F804320340C4F804320B698BBBED
:1013A0001F4BD3F814422040C3F814020B6A012BE0
:1013B0002FD01B4AD2F8003223F00103C2F80032CA
:1013C000002070BC7047164BD3F80C421443C3F88E
:1013D0000C420E688D884C6945EA0645483443F84E
:1013E00034508E688C894D6944EA0644483503EBD5
:1013F000C5035C60C9E70A4CD4F804321343C4F84F
:101400000432CBE70648D0F814321343C0F8143244
:10141000CCE70349D1F81C321A43C1F81C22C8E7B3
:101420000064004038B590F82030DBB2012B05D0C5
:10143000436A43F400234362012038BD044602237B
:1014400080F820300268136823F001031360FFF76F
:10145000A7FE054623685B6813F0010F0DD0FFF768
:101460009FFE401B0A28F5D9636A43F40033636288
:10147000052384F820300120DFE700206062DCE7EC
:1014800070B490F820400568AD68013CE4B2012CCE
:1014900006D9436A43F480234362012070BC70473D
:1014A00015F0E05F5BD0C5F30165022D3ED8012445
:1014B000AC401C608B68002B3ED10E68CB68046882
:1014C00043EA465605F118031B01E65003680C6910
:1014D00005F1180603EB06135C600B7D012B36D07B
:1014E000D17993791B0443EA0163517943EA0123DB
:1014F0001479016823432C012144C1F88C31D1783F
:1015000093781B0443EA0163517843EA012311787D
:1015100002680B432244C2F88831026818352D0155
:10152000535943F0010353510020B7E7436A43F492
:10153000000343620120B1E74C6843EAC403CC686E
:101540000668234305F1180424013351BEE70368FC
:1015500003EB0613596841F480715960C0E7436A90
:1015600043F400134362012098E790F82030013BD8
:10157000DBB2012B01D90020704703689A6812F092
:10158000806F0BD100209A6812F0006F00D00130FC
:101590009B6813F0805FEFD0013070470120F2E7C5
:1015A00030B490F82040013CE4B2012C06D9436AE3
:1015B00043F480234362012030BC704700296FD17F
:1015C0000468E46814F0030F64D0056801F11B049B
:1015D00024012C5904F004049460002C6BD105689C
:1015E00001F11B0424012C59640D1460056801F1FC
:1015F0001B0424012D5905F00205D560056825441A
:101600006D6805F00F051561056825446D68C5F323
:101610000725956105682C446468240C54610468AE
:101620000A011444D4F8B8411C7004681444D4F876
:10163000B841C4F307245C7004681444D4F8B8417A
:10164000C4F307449C7004681444D4F8B841240ED1
:10165000DC7004681444D4F8BC411C710468144460
:10166000D4F8BC41C4F307245C7104681444D4F872
:10167000BC41C4F307449C7104682244D2F8BC21E5
:10168000120EDA71F9B90268D36843F02003D3600F
:10169000002091E7436A43F40013436201208BE783
:1016A0000468246914F0030F8FD1436A43F40013D4
:1016B0004362012080E7056801F11B0424012C59D5
:1016C000E408546092E70268136943F02003136151
:1016D000002071E790F82030013BDBB2012B05D9E7
:1016E000436A43F4802343620120704702685369D0
:1016F0001943516100207047704770477047704729
:101700007047704770477047704770477047704721
:101710002DE9F84F054603685C695F689E68D3F859
:101720000C90D3F81080D3F818A014F0010F5AD001
:1017300016F0010F17D001229A6016F0020F08D19F
:1017400016F0040F30D116F0080F07D04FF4805B6D
:101750000BE0FFF7D1FF4FF0000B06E0FFF7CFFFE4
:101760004FF0000B01E04FF0000B16F4807F0BD020
:101770002B684FF480729A6016F4007F17D116F42C
:10178000806F18D04BF4005B16F4803F2DD02B688F
:101790004FF480329A6016F4003F16D116F4802F71
:1017A00017D04BF4004B20E04FF4006BDDE72846E8
:1017B000FFF7A3FFE8E716F4006F02D04BF4804B6D
:1017C000E2E72846FFF79CFFDEE72846FFF796FF93
:1017D0000BE016F4002F02D04BF4803B05E02846C6
:1017E000FFF78FFF01E04FF0000B14F0080F07D058
:1017F00019F0100F04D04BF4007B2B681022DA6034
:1018000014F0040F02D019F0080F60D114F0020F89
:1018100004D02B68DB6813F0030F5FD114F0400F86
:1018200007D018F0100F04D04BF4806B2B681022F7
:101830001A6114F0200F02D018F0080F52D114F0E2
:10184000100F04D02B681B6913F0030F51D114F44F
:10185000003F02D017F0100F4FD114F4803F02D098
:1018600017F0080F50D114F4004F67D017F0040F91
:1018700061D014F4807F04D01AF0010F01D04BF036
:10188000010B14F4007F04D01AF0020F01D04BF0CA
:10189000020B14F4806F04D01AF0040F01D04BF047
:1018A000040B14F4006F46D01AF0700A43D0BAF15A
:1018B000300F48D02FD9BAF1500F47D0BAF1600F8E
:1018C00047D0BAF1400F31D14BF0400B2EE02B68DE
:1018D0000822DA602846FFF715FF97E7284604F04C
:1018E00075FA9BE72B6808221A612846FFF70CFF60
:1018F000A5E72846FFF707FFA9E72B6810225A60E3
:101900002846FFF702FFA8E72B6808225A602846FE
:10191000FFF7FCFEA7E7BAF1100F05D0BAF1200FD0
:1019200004D14BF0100B01E04BF0080B2A689369CF
:1019300023F0700393612B6804225A60BBF1000FFF
:101940000AD1BDE8F88F4BF0200BEFE74BF0800B8E
:10195000ECE74BF4807BE9E76B6A43EA0B036B62CD
:101960002846FFF7D4FEECE7074AD36823F4E06388
:101970001B041B0C000200F4E060184340F0BF6041
:1019800040F40030D060704700ED00E030B4174BF9
:10199000DB68C3F30223C3F10704042C28BF04242B
:1019A0001D1D062D18D9033B4FF0FF3505FA04F431
:1019B00021EA0401994005FA03F322EA03031943DB
:1019C00000280BDB0901C9B200F1604000F561405D
:1019D00080F8001330BC70470023E5E700F00F00EB
:1019E0000901C9B2024B1954F4E700BF00ED00E051
:1019F00014ED00E0002807DB00F01F02400901237E
:101A00009340024A42F82030704700BF00E100E0F6
:101A10000138B0F1807F0AD2064B5860064AF021A7
:101A200082F823100020986007221A607047012076
:101A3000704700BF10E000E000ED00E070B110B5AD
:101A40000446037933B1022323710020206101236E
:101A5000237110BD437107F0E9FAF4E701207047E4
:101A60004379012B31D010B401234371022202715A
:101A7000046822688B4013432360B1B9026811687F
:101A8000136803F0380311F0040F01D0382B07D08E
:101A9000012303710023437118465DF8044B70471E
:101AA000536843F001035360F2E70268116813685A
:101AB00003F4601311F4802FEAD0B3F5601FE7D16F
:101AC000536843F002035360E2E702207047437912
:101AD000012B1FD070B401254571022303710668E4
:101AE000336840F6FE74944023EA04040B684968A6
:101AF0000B4393402343336004682368C02101FAF9
:101B000002F223EA020222600571002343711846A3
:101B100070BC70470220704710B483B00024019459
:101B20000068019051B101990A4414320192019A5E
:101B30001360002003B05DF8044B704701990A441C
:101B400008320192F3E730B405682C6824F480244D
:101B50002C60046863608368402B05D0036899603B
:101B60000368DA6030BC704703689A600368D96024
:101B7000F8E700000268D3B2103B0B49A1FB031346
:101B80001B090A49C95CC165032B06D822F47F7280
:101B900022F003028265806D704722F47F7222F08A
:101BA000030204328265F6E7ABAAAAAAF8EF00089E
:101BB000836A826992B9012B0AD01BB1022B01D032
:101BC00000207047C36A13F0807F2CD1002070473B
:101BD000C36AB3F1C07F28D000207047B2F5005F20
:101BE00005D0022B29D9032B15D000207047032BD9
:101BF00003D8DFE803F01C041C0A00207047C36A06
:101C000013F0807F15D100207047C36AB3F1C07F05
:101C100011D000207047C36A13F0807F01D00120EB
:101C20007047002070470120704701207047012055
:101C30007047012070470120704701207047000065
:101C400070B50446FFF7ACFA002C5BD005460023C4
:101C500084F83430022384F835302268136823F086
:101C60000103136023681A6812F0010F0AD0FFF70E
:101C700097FA401B0528F5D920236365032084F8D3
:101C8000350070BD1A68204810406168A2680A4398
:101C9000E1680A4321690A4361690A43A1690A4369
:101CA000E1690A43216A0A430243616A04291ED09A
:101CB0001A602668756925F00705636A1D43042BC1
:101CC00007D1A36A1D43E36A1BB12046FFF770FFEB
:101CD00090B975612046FFF74DFFE26D3F239340B9
:101CE000836000206065012384F83530C9E7E16A2C
:101CF000206B01430A43DBE740236365012084F83E
:101D00003500BEE70120BCE73F8010F038B5856D97
:101D100090F83440012C2CD0012480F8344090F805
:101D20003540E4B2012C04D0002380F83430022086
:101D300038BD0446022084F8350000206065204646
:101D4000FFF701FFE26D3F239340AB602268136809
:101D500043F016031360236C23B12268136843F029
:101D6000080313602268136843F001031360002026
:101D7000DEE70220DCE770B50446866DFFF710FA57
:101D800094F83530DBB2022B06D080236365002344
:101D900084F83430012070BD05462268136823F0B2
:101DA000160313602268536923F080035361236C88
:101DB000E3B12268136823F00803136022681368F4
:101DC00023F00103136023681B6813F0010F11D087
:101DD000FFF7E6F9401B0528F5D9202363650023AA
:101DE00084F83430032084F83500D4E7A36C002B4A
:101DF000DFD1E3E7E26D3F239340B360002084F836
:101E00003400012384F83530C5E790F83530DBB273
:101E1000022B03D08023436501207047052380F8FF
:101E200035300268136823F0010313600020704707
:101E3000F0B583B0044600230193724B1D68724BCA
:101E4000A3FB0535AD0A876D3E68C26D082393403C
:101E5000334210D003681A6812F0040F0BD01A68CE
:101E600022F004021A60C26D08239340BB60436DE8
:101E700043F001034365E26D01239340334209D0EF
:101E80002268526912F0800F04D0BB60636D43F08A
:101E900002036365E26D04239340334209D0226854
:101EA000126812F0020F04D0BB60636D43F00403AC
:101EB0006365E26D10239340334224D02268126898
:101EC00012F0080F1FD0BB6023681A6812F4802F2D
:101ED0000DD01B6813F4002F04D1236C9BB1204656
:101EE000984710E0A36C73B1204698470BE01A683E
:101EF00012F4807F03D11A6822F008021A60236C62
:101F00000BB120469847E26D20239340334255D0D1
:101F10002268126812F0100F50D0BB6094F8353070
:101F2000DBB2052B0ED023681A6812F4802F33D051
:101F30001B6813F4002F2AD1636C002B3ED020467F
:101F400098473BE02268136823F016031360226869
:101F5000536923F080035361236CA3B12268136893
:101F600023F008031360E26D3F239340BB6000231E
:101F700084F83430012384F83530236D002B3FD0B2
:101F8000204698473CE0A36C002BE7D1EBE7E36BDE
:101F9000A3B12046984711E01A6812F4807F09D156
:101FA0001A6822F010021A60002384F834300123EA
:101FB00084F83530E36B0BB120469847636DFBB175
:101FC000636D13F0010F17D0052384F835302268B4
:101FD000136823F001031360019B01330193AB42AB
:101FE00004D823681B6813F0010FF5D1002384F88F
:101FF0003430012384F83530E36C0BB12046984728
:1020000003B0F0BDD8010020B5814E1B406D704774
:1020100000230F2B00F2D780F0B583B039E0072200
:1020200000E00022AA403A430234674D45F82420DC
:10203000664A1468F24302EA04054F6817F4803FC9
:1020400001D046EA0405614C2560646802EA040593
:102050004F6817F4003F01D046EA04055B4C656009
:10206000A46802EA04054F6817F4801F01D046EA0D
:102070000405564CA560E46822404D6815F4001F25
:1020800001D046EA0402514CE26001330F2B00F20A
:10209000988001229A400C6804EA0206B242F4D108
:1020A0004C68651E012D03D9112C01D0122C12D1C0
:1020B00085685F000324BC4025EA0405CC68BC4069
:1020C0002C438460456825EA02054C68C4F300127D
:1020D0009A402A434260C4685F000322BA40D24358
:1020E00014408D68BD402543C5604C68022C01D06A
:1020F000122C13D1DD08083550F825E003F0070451
:102100004FEA840C0F2404FA0CF42EEA040E0C6936
:1021100004FA0CF444EA0E0440F825400468224016
:102120004C6804F00304BC40224302604A6812F089
:10213000805FAAD000220192254A546C44F4804466
:102140005464526C02F480420192019A9C08A51CCE
:102150001D4A52F8257003F0030295000F22AA4091
:1021600027EA02071B4A90423FF45BAF02F5806208
:1021700090421AD002F58062904218D002F5806237
:10218000904216D002F58062904214D002F580622F
:10219000904212D002F58062904210D002F5806227
:1021A00090423FF43CAF08223CE701223AE702228A
:1021B00038E7032236E7042234E7052232E7062215
:1021C00030E703B0F0BD704700380140003C0140EB
:1021D00000380240000002400369194201D100208A
:1021E00070470120704712B909048161704781610D
:1021F0007047000008B5054B5B69034200D108BD7C
:10220000024B586106F09EFBF9E700BF003C01401D
:1022100003685A6912F4806F11D06FF480625A61BA
:1022200000230363202280F83D2080F83E30026CBA
:1022300042F00402026480F83C3001207047002024
:102240007047F8B506460C4617461D4622E0FEF7D5
:10225000A7FF069BC01AA84200D8DDB9002333634C
:10226000202286F83D2086F83E30326C42F0200273
:10227000326486F83C3001201AE033685B6924EA56
:1022800003039BB2B3FA83F35B099F420FD1B5F10D
:10229000FF3FDCD1C4F30743012BEED033689B69C9
:1022A00024EA03039BB2B3FA83F35B09EDE7002052
:1022B000F8BDF8B504460D4616461F463CE01A68C0
:1022C00042F400721A6023686FF480625A6100233E
:1022D0002363202284F83D2084F83E30226C42F0B3
:1022E0000402226484F83C30012033E0FEF758FFFA
:1022F000C01BB04200D8FEB900232363202284F81B
:102300003D2084F83E30226C42F02002226484F8A2
:102310003C3001201EE023685B6925EA03039BB281
:10232000003318BF0123A3B123685A6912F4806FE8
:10233000C5D1B6F1FF3FD9D1C5F30743012BEAD090
:1023400023689B6925EA03039BB2003318BF01236E
:10235000E9E70020F8BD70B504460D46164623682F
:102360005B6913F0800F1CD12046FFF751FFD0B9F5
:10237000B5F1FF3FF3D0FEF713FF801BA84201D851
:10238000002DECD100232363202284F83D2084F823
:102390003E30226C42F02002226484F83C3001205E
:1023A00000E0002070BD0120FCE700002DE9F041B5
:1023B00084B004460E46174698460B9D0268136883
:1023C00043F4806313600268136843F480731360FE
:1023D00000950A9B00224FF00111FFF732FF68B110
:1023E00023681B6813F4807F00F089804FF400732A
:1023F00023640323184604B0BDE8F081F6B22368D5
:1024000006F0FE021A612B460A9A3F492046FFF762
:1024100050FF08B10123EDE70023039323685A69B5
:1024200003929B690393039B2A460A992046FFF770
:1024300092FF58B1236C042B01D00123DAE7226804
:10244000136843F4007313600123D3E7B8F1010F5D
:102450000DD12368FFB21F612A460A992046FFF773
:102460007AFF20B3236C042B1AD00123C2E7236820
:102470003A0A1A612A460A992046FFF76CFF58B1BA
:10248000236C042B01D00123B4E72268136843F4C2
:10249000007313600123ADE72368FFB21F61DBE720
:1024A0002268136843F4007313600123A2E72268D3
:1024B000136843F48073136000950A9B00224FF069
:1024C00001112046FFF7BDFE48B123681B6813F4D5
:1024D000807F16D04FF40073236403238AE72368B8
:1024E00046F001061E612B460A9A07492046FFF76F
:1024F000E0FE034600283FF47DAF01237AE7032383
:1025000078E7032376E700BF0200010070B50546B7
:102510000C4616462B685A6912F0400F29D15A69A9
:1025200012F0100F15D1FEF73BFE801BA04201D820
:10253000002CEFD100232B63202285F83D2085F865
:102540003E302A6C42F020022A6485F83C3001209B
:1025500070BD6FF010025A6100232B63202285F8B2
:102560003D2085F83E302A6C2A6485F83C300120F5
:10257000EEE70020ECE70000002800F0C880F8B586
:10258000044690F83D30002B75D0242384F83D306C
:102590002268136823F0010313602268136843F470
:1025A000004313602268136823F40043136001F0B2
:1025B00083F86268584B9A4262D8584B98428CBF55
:1025C00000230123002B40F0A480554BA3FB0023E4
:1025D0009B0C21684A6822F03F021A434A60256832
:1025E0002A6A22F03F0266684B498E424ED8013378
:1025F00013432B622568E96921F44F4121F0FF0163
:102600006368454A93424BD801385B00B0FBF3F353
:102610000133C3F30B03042B38BF04230B43EB61DB
:1026200021680B6823F0C003E269206A0243134368
:102630000B6021688B6823F4034323F0FF032269B6
:10264000E068024313438B602168CB6823F0FF03EB
:102650006269A06902431343CB602268136843F0A8
:102660000103136000202064202384F83D302063A0
:1026700084F83E00F8BD80F83C3006F00BFD84E79E
:10268000284B98428CBF002301239BE74FF496719F
:1026900001FB03F32449A1FB03139B090133A7E7C3
:1026A000A268BAB9461E03EB4307B6FBF7F601363C
:1026B000C6F30B06B6FA86F6760936BBC2B9013800
:1026C00003EB4303B0FBF3F30133C3F30B0242F418
:1026D0000043A3E7461E03EB830707EB8707B6FB20
:1026E000F7F60136C6F30B06B6FA86F67609E4E786
:1026F000013803EB830303EB8303B0FBF3F20132F6
:10270000C2F30B0242F4404388E7012386E701202D
:1027100070470120AEE700BFA08601007F841E0045
:1027200083DE1B43FF083D00D34D62102DE9F041CD
:1027300086B004460E4617469846FEF731FD94F8DB
:102740003D30DBB2202B04D00226304606B0BDE877
:10275000F08105460090192301229E492046FFF78B
:1027600070FD002840F0348194F83C30012B00F0DB
:102770003781012384F83C3023681A6812F0010F76
:1027800003D11A6842F001021A602268136823F428
:1027900000631360222384F83D30402384F83E30E8
:1027A000002323640C9B6362BDF834306385638D22
:1027B0002385894BE36201950E9B009343463A467D
:1027C00031462046FFF7F2FD0646002840F00A8118
:1027D000238D5BB9029323685A6902929A69029227
:1027E000029A1A6842F400721A6072E0012B0AD051
:1027F000022B1AD00023059323685A6905929B691E
:102800000593059B65E02268136823F480631360D9
:102810000023039323685A6903929A690392039AE7
:102820001A6842F400721A6053E02268136823F4B5
:10283000806313602268136843F40063136000230D
:10284000049323685A6904929B690493049B40E0B3
:102850002A460E992046FFF759FE002840F0C48012
:1028600023681A69636A1A70636A01336362238D8D
:10287000013B2385638D013B9BB2638529E0009575
:102880000E9B002255492046FFF7DBFC002840F054
:10289000AD802268136843F40073136023681A69DB
:1028A000636A1A70626A531C6362238D013B23853D
:1028B000638D013B9BB2638523681B695370636A18
:1028C00001336362238D013B2385638D013B9BB202
:1028D0006385238D002B72D0032B49D8012BB7D0F1
:1028E000022BCCD000950E9B00223C492046FFF7DE
:1028F000A8FC00287CD12268136823F4806313604D
:1029000023681A69636A1A70636A01336362238DEC
:10291000013B2385638D013B9BB2638500950E9B34
:1029200000222E492046FFF78CFC002862D1226845
:10293000136843F40073136023681A69636A1A709A
:10294000626A531C6362238D013B2385638D013BC7
:102950009BB2638523681B695370636A01336362AA
:10296000238D013B2385638D013B9BB26385B0E7DB
:102970002A460E992046FFF7C9FD00283CD123685E
:102980001A69636A1A70626A531C6362238D013B81
:102990002385638D013B9BB263852368596911F0E0
:1029A000040F96D01B695370636A01336362238DF1
:1029B000013B2385638D013B9BB2638589E720231F
:1029C00084F83D30002384F83E3084F83C30BCE687
:1029D0000226BAE6020010000000FFFF040001001A
:1029E0000226B2E60126B0E60126AEE60126ACE6F6
:1029F0000126AAE60126A8E60126A6E60268D36813
:102A000023F0C003D360202380F83530704702687C
:102A1000D36823F49073D3600268536923F00103F1
:102A20005361202380F83630704790F83530DBB2A0
:102A3000212B2AD18368B3F5805F16D0C3695A1C55
:102A4000C2611A7803685A60438C013B9BB243848D
:102A5000EBB90268D36823F08003D3600268D368BF
:102A600043F04003D36000207047C3691B880268AD
:102A7000C3F308035360C3681BB9C3690233C3615E
:102A8000E2E7C3690133C361DEE70220704700203B
:102A9000704700002DE9784B04460268136923F45F
:102AA000405313610268D36823F4B05323F00C033E
:102AB000D3600168CA688368C06803432069034320
:102AC0001343CB602268536923F440735361236836
:102AD000394A934239D002F58062934235D000F0F2
:102AE000EBFD2668B5684FF00009494610EB000879
:102AF00049EB090910EB080B41EB090C4FEACC0339
:102B000043EA5B734FEACB0293469C4663689A00A4
:102B10009B0F10EB0B0041EB0C01FEF705F9274C66
:102B2000A4FB00325109642202FB1102130132336B
:102B3000A4FB03235B0903F0F00202EB011203F094
:102B40000F0313442B43B36034E000F0C5FD266847
:102B5000B5684FF00009494610EB000849EB090938
:102B600010EB080B41EB090C4FEACC0343EA5B7313
:102B70004FEACB0293469C4663689A009B0F10EB8A
:102B80000B0041EB0C01FEF7CFF80C4CA4FB00321C
:102B90005109642202FB110213013233A4FB032307
:102BA0005B0903F0F00202EB011203F00F03134480
:102BB0002B43B360BDE8788B001001401F85EB51BB
:102BC00000283FD010B5044690F83530002B34D0A3
:102BD000242384F835302268D36823F40053D3606B
:102BE0002046FFF757FF2268136923F4F04313616F
:102BF0002268536923F0280353612268D36843F4A1
:102C00000053D3602268936923F0FF03217D0B43B7
:102C100093612268536923F00403A1690B43536154
:102C20002268536943F0020353610020A06320230C
:102C300084F8353084F8363010BD80F8343006F032
:102C400035FBC5E70120704738B590F83540E4B250
:102C5000202C31D1002931D0002A31D090F83430E5
:102C6000012B2FD013460446012280F83420C16185
:102C70000384438400258563212280F83520C26ABD
:102C80001148D063E26A11481064E26A1048D064C7
:102C9000E26A156522680432E06AFFF737F82368B4
:102CA0006FF040021A6084F834502268536943F090
:102CB00080035361284600E0022038BD0120FCE774
:102CC0000120FAE70220F8E7EB2D0008412E00086A
:102CD000292F000830B583B090F83640E4B2202C9C
:102CE0003DD100293ED0002A3ED090F83430012B4F
:102CF0003CD013460A460446012180F83410426253
:102D0000038500258563222180F83610016B184861
:102D1000C863216B17480864216B1748C864216B8E
:102D20000D6521680431206BFEF7F0FF01952368E3
:102D30001A6801925A680192019A84F83450DA684C
:102D400042F48072DA602268536943F001035361F0
:102D50002268536943F040035361284600E0022093
:102D600003B030BD0120FBE70120F9E70220F7E7BF
:102D70004B2E00081D2F0008292F000810B504460F
:102D80000268D36823F4F073D3600268536923F0B8
:102D90000103536103685A6912F0800F0AD05A691F
:102DA00022F080025A61C36A23B100221A65C06A08
:102DB000FEF7E1FF23685A6912F0400F0AD05A6902
:102DC00022F040025A61236B23B100221A65206B66
:102DD000FEF7D1FF002060846085A063202384F883
:102DE000363084F8353010BD704708B5836B026803
:102DF000126812F4807F0CD100225A8419684A6943
:102E000022F080024A611A68D36843F04003D3601D
:102E100008BD1846FFF7E8FFFAE708B50168CA6879
:102E200022F04002CA6001684A6922F001024A6148
:102E3000202280F83520FFF7D7FF002008BD70471B
:102E400008B5806BFFF7FBFF08BD08B5836B026810
:102E5000126812F4807F13D100225A851968CA685B
:102E600022F48072CA6019684A6922F001024A613C
:102E700019684A6922F040024A61202283F836200C
:102E8000184608F085F908BD08B590F83630DBB271
:102E9000222B40D103685B689AB28168B1F5805FEC
:102EA0000CD0C268D2B9426A511C41621370438D82
:102EB000013B9BB24385C3B100202DE0416AC3684A
:102EC00033B9C2F308020A80436A02334362EEE771
:102ED000D2B20A80436A01334362E8E7426A511C76
:102EE000416203F07F031370E1E70268D36823F0C7
:102EF0002003D3600268D36823F48073D360026830
:102F0000536923F001035361202380F8363008F021
:102F10003FF9002000E0022008BD704708B5806B33
:102F2000FFF7FBFF08BD704710B5846B23685A6933
:102F300094F83530DBB2212B10D023685A6902F0A7
:102F4000400294F83630DBB2222B11D0A36B43F051
:102F50001003A3632046FFF7E6FF10BD02F08002D6
:102F6000002AEAD0002363842046FFF747FDE4E708
:102F7000002AEBD0002363852046FFF748FDE5E7F4
:102F800010B5044602681368D168526913F00F0047
:102F900005D113F0200F02D011F0200F56D10028D8
:102FA0006AD012F0010202D111F4907F64D013F0C4
:102FB000010F06D011F4807F03D0A06B40F0010018
:102FC000A06313F0040F04D01AB1A06B40F002000C
:102FD000A06313F0020F04D01AB1A06B40F00400FC
:102FE000A06313F0080F07D011F0200F00D11AB121
:102FF000A26B42F00802A263A26B002A48D013F031
:10300000200F02D011F0200F24D123685B6903F058
:103010004003A26B12F0080F00D13BB32046FFF72C
:10302000F6FC23685A6912F0400F1BD05A6922F04F
:1030300040025A61236B8BB11A4A1A65206BFEF766
:10304000E4FE28B3206B036D984721E02046FFF78C
:103050001BFF1DE02046FFF717FFD6E72046FFF7CE
:1030600062FF15E02046FFF75EFF11E02046FFF704
:103070005AFF0023A3630BE013F0800F02D011F07E
:10308000800F06D113F0400F02D011F0400F04D191
:1030900010BD2046FFF7C9FCFAE72046FFF7BDFE4A
:1030A000F6E700BFA930000808B5806B0023438510
:1030B0004384FFF738FF08BD002800F0E48170B5B5
:1030C00082B00446036813F0010F3BD0A74B9B6806
:1030D00003F00C03042B2CD0A44B9B6803F00C03CF
:1030E000082B21D06368B3F5803F4FD0B3F5A02FF4
:1030F00052D09E4B1A6822F480321A601A6822F469
:1031000080221A606368002B50D0FEF749F805460C
:10311000964B1B6813F4003F14D1FEF741F8401B97
:103120006428F5D90320B3E1904B5B6813F4800F5A
:10313000D8D08E4B1B6813F4003F03D06368002B7C
:1031400000F0A381236813F0020F55D0874B9B68D2
:1031500013F00C0F3ED0854B9B6803F00C03082B3B
:1031600033D0E368002B68D0814B01221A60FEF750
:1031700017F805467D4B1B6813F0020F54D1FEF77C
:103180000FF8401B0228F5D9032081E1774A136824
:1031900043F480331360B5E7744B1A6842F480221D
:1031A0001A601A6842F480321A60ABE7FDF7F8FF44
:1031B00005466E4B1B6813F4003FC3D0FDF7F0FFCC
:1031C000401B6428F5D9032062E1684B5B6813F467
:1031D000800FC6D1654B1B6813F0020F04D0E36863
:1031E000012B01D0012053E1604A136823F0F8035A
:1031F000216943EAC1031360236813F0080F40D02C
:10320000636963B35B4B01221A60FDF7C9FF054692
:10321000564B5B6F13F0020F33D1FDF7C1FF401B1C
:103220000228F5D9032033E1504A136823F0F8034C
:10323000216943EAC1031360DEE74D4B00221A60A7
:10324000FDF7AEFF0546494B1B6813F0020FD3D0C4
:10325000FDF7A6FF401B0228F5D9032018E1454BD6
:1032600000221A60FDF79CFF0546404B5B6F13F090
:10327000020F06D0FDF794FF401B0228F5D903206A
:1032800006E1236813F0040F79D0384B1B6C13F060
:10329000805F33D100230193344B1A6C42F080528B
:1032A0001A641B6C03F080530193019B0125324B80
:1032B0001B6813F4807F23D0A368012B34D0052B27
:1032C00038D02A4B1A6F22F001021A671A6F22F0C7
:1032D00004021A67A368002B36D0FDF761FF06468B
:1032E000224B1B6F13F0020F48D1FDF759FF801BD3
:1032F00041F288339842F3D90320C9E00025D6E78C
:103300001D4A136843F480731360FDF749FF0646B6
:10331000194B1B6813F4807FCED1FDF741FF801B52
:103320000228F5D90320B3E0104A136F43F00103DC
:103330001367CFE70D4B1A6F42F004021A671A6F3A
:1033400042F001021A67C5E7FDF72AFF0646074B60
:103350001B6F13F0020F11D0FDF722FF801B41F20B
:1033600088339842F3D9032092E000BF003802402E
:1033700000004742800E474200700040EDB9A3694B
:10338000002B00F08480454A926802F00C02082A63
:1033900051D0022B17D0424B00221A60FDF700FFDC
:1033A00004463E4B1B6813F0007F42D0FDF7F8FE49
:1033B000001B0228F5D903206AE0384A136C23F079
:1033C00080531364DBE7364B00221A60FDF7E8FEFA
:1033D0000546324B1B6813F0007F06D0FDF7E0FE78
:1033E000401B0228F5D9032052E0E369226A134307
:1033F000626A43EA8213A26A5208013A43EA02432C
:10340000E26A43EA0263254A5360254B01221A60AF
:10341000FDF7C6FE0446214B1B6813F0007F06D162
:10342000FDF7BEFE001B0228F5D9032030E0002086
:103430002EE000202CE0012B2CD0184B9B6803F4CD
:103440008001E269914201D0012021E003F03F02B6
:10345000216A8A4201D001201AE0616A47F6C072EF
:103460001A408A4201D0012012E003F44032A16ADE
:103470008A4201D001200BE003F07063E26A9342BC
:103480000AD0012004E001207047012000E0002064
:1034900002B070BD0120FBE70020F9E700380240D0
:1034A00060004742264B9B6803F00C03042B44D07A
:1034B000082B01D0234870472DE9F04B204B5A6868
:1034C00002F03F025B6813F4800F13D01C4B596865
:1034D000C1F3881100231C48A1FB0001FDF724FC67
:1034E000174B5B68C3F3014301335B00B0FBF3F0A0
:1034F000BDE8F08B124B5B68C3F388131E460027B0
:103500005C010025E41A65EB0705A90141EA946115
:10351000A001001B61EB0501CB0043EA5073C4001E
:10352000A01943EB07018B0243EA90538402204623
:1035300019460023FDF7F8FBD2E70348704700BFA8
:10354000003802400024F40040787D01002800F09B
:103550009E8070B50446504B1B6803F00F038B42EE
:1035600009D2CBB24C4A1370136803F00F038B429D
:1035700001D0012070BD236813F0020F17D013F0A3
:10358000040F04D0454A936843F4E05393602368E2
:1035900013F0080F04D0414A936843F460439360EA
:1035A0003E4A936823F0F003A068034393600D46FE
:1035B000236813F0010F32D06368012B21D09A1ECB
:1035C000012A25D9354A126812F0020F61D0334919
:1035D0008A6822F0030213438B60FDF7E1FD064683
:1035E0002E4B9B6803F00C036268B3EB820F16D07E
:1035F000FDF7D6FD801B41F288339842F0D90320B5
:10360000B8E7264A126812F4003FE0D10120B1E782
:10361000224A126812F0007FD9D10120AAE71E4B7E
:103620001B6803F00F03AB4209D9EAB21A4B1A70B8
:103630001B6803F00F03AB4201D001209AE7236817
:1036400013F0040F06D0154A936823F4E053E168A1
:103650000B439360236813F0080F07D00F4A936859
:1036600023F46043216943EAC1039360FFF71AFF23
:103670000A4B9B68C3F30313094AD35CD840094B38
:103680001860094B1868FDF741FD002072E7012022
:10369000704701206EE700BF003C02400038024046
:1036A00018F10008D801002004000020014B186820
:1036B000704700BFD801002008B5FFF7F7FF044BA3
:1036C0009B68C3F38223034AD35CD84008BD00BF84
:1036D0000038024028F1000808B5FFF7E7FF044B67
:1036E0009B68C3F34233034AD35CD84008BD00BF94
:1036F0000038024028F1000830B4036A23F00103C7
:103700000362056A4268846924F073040B681C43F1
:1037100025F002058B682B43104DA84203D005F518
:103720008065A84205D123F00803CD682B4323F020
:1037300004030A4DA84203D005F58065A84205D1CF
:1037400022F440724D6915438A692A4342608461BC
:103750004A684263036230BC704700BF000001400A
:1037600030B4036A23F480730362036A4268C46955
:1037700024F073040D682C4323F400738D6843EA2E
:103780000523124DA84203D005F58065A84206D155
:1037900023F40063CD6843EA052323F480630B4DD3
:1037A000A84203D005F58065A84207D122F4405213
:1037B0004D6942EA05128D6942EA05124260C46110
:1037C0004A68C263036230BC704700BF000001401A
:1037D00030B4036A23F480530362036A4468C26905
:1037E00022F4E6420D6842EA052223F400538D6874
:1037F00043EA0533094DA84203D005F58065A84288
:1038000004D124F480444D6944EA85144460C261C3
:103810004A680264036230BC704700BF0000014088
:1038200010B4036A046A24F001040462846924F079
:10383000F00444EA021223F00A030B43826103629C
:103840005DF8044B704710B4036A23F01003036261
:103850008469036A24F4704444EA023223F0A0032A
:1038600043EA0113826103625DF8044B7047836889
:1038700023F07003194341F00701816070477047DE
:103880007047704770477047704710B5044603682B
:103890001A6912F0020F11D0DA6812F0020F0DD07F
:1038A0006FF002021A610123037703689B6913F02A
:1038B000030F70D0FFF7E6FF0023237723681A6910
:1038C00012F0040F12D0DA6812F0040F0ED06FF06D
:1038D00004021A610223237723689B6913F4407F53
:1038E0005FD02046FFF7CEFF0023237723681A69B5
:1038F00012F0080F12D0DA6812F0080F0ED06FF035
:1039000008021A61042323772368DB6913F0030F8D
:103910004ED02046FFF7B6FF0023237723681A69AD
:1039200012F0100F12D0DA6812F0100F0ED06FF0F4
:1039300010021A61082323772368DB6913F4407FA0
:103940003DD02046FFF79EFF0023237723681A69A6
:1039500012F0010F03D0DA6812F0010F36D123689C
:103960001A6912F0800F03D0DA6812F0800F34D198
:1039700023681A6912F0400F03D0DA6812F0400F82
:1039800032D123681A6912F0200F03D0DA6812F0DE
:10399000200F30D110BDFFF774FF2046FFF773FFF3
:1039A0008AE72046FFF76DFF2046FFF76CFF9BE795
:1039B0002046FFF766FF2046FFF765FFACE720468D
:1039C000FFF75FFF2046FFF75EFFBDE76FF00102E4
:1039D0001A612046FFF754FFC1E76FF080021A61B9
:1039E000204600F0CAF9C3E76FF040021A61204692
:1039F000FFF74AFFC5E76FF020021A61204600F08A
:103A0000BBF9C7E70368304A904212D0B0F1804F4B
:103A10000FD0A2F57C4290420BD002F5806290421A
:103A200007D002F58062904203D002F578429042BE
:103A300003D123F070034A681343234A90422AD0EB
:103A4000B0F1804F27D0A2F57C42904223D002F5FE
:103A5000806290421FD002F5806290421BD002F536
:103A60007842904217D002F57052904213D002F57E
:103A7000806290420FD002F5806290420BD0A2F596
:103A80009832904207D002F58062904203D002F54E
:103A90008062904203D123F44073CA68134323F039
:103AA00080034A69134303608B68C3620B688362B7
:103AB000054B984203D003F58063984201D10B690E
:103AC000036301234361704700000140A8B110B5B2
:103AD000044690F83D305BB1022384F83D30211D4F
:103AE0002068FFF78FFF012384F83D30002010BDD0
:103AF00080F83C3005F008FBEEE701207047A8B1E4
:103B000010B5044690F83D305BB1022384F83D3097
:103B1000211D2068FFF776FF012384F83D30002047
:103B200010BD80F83C30FFF7AAFEEEE70120704799
:103B300030B4036A23F010030362036A44688269A5
:103B400022F4E6420D6842EA052223F020038D6844
:103B500043EA0513114DA84203D005F58065A8423C
:103B600006D123F08003CD6843EA051323F0400318
:103B70000A4DA84203D005F58065A84207D124F478
:103B800040644D6944EA85048D6944EA85044460D3
:103B900082614A688263036230BC70470000014062
:103BA00090F83C30012B28D010B50446012380F852
:103BB0003C30022380F83D300C2A0BD8DFE802F0BD
:103BC000070A0A0A110A0A0A150A0A0A19000068ED
:103BD000FFF792FD012384F83D30002084F83C007B
:103BE00010BD0068FFF7A4FFF4E70068FFF7B8FD19
:103BF000F0E70068FFF7ECFDECE70220704710B437
:103C0000846824F47F4442EA03230B432343836004
:103C10005DF8044B704790F83C30012B66D010B52E
:103C20000446012380F83C30022380F83D300268CE
:103C3000936823F47F4323F0770393600B68402B52
:103C40004AD013D9602B3DD01ED9702B28D0B3F5A4
:103C5000005F30D1CB684A6889680068FFF7CFFF02
:103C60002268936843F48043936024E0102B06D0CD
:103C700004D9202B03D0302B01D01CE0DBB919462E
:103C80002068FFF7F4FD16E0502B14D1CA6849688C
:103C90000068FFF7C5FD50212068FFF7E8FD0AE046
:103CA000CB684A6889680068FFF7A9FF22689368B3
:103CB00043F077039360012384F83D30002084F8BB
:103CC0003C0010BDCA6849680068FFF7BCFD602170
:103CD0002068FFF7CCFDEEE7CA6849680068FFF787
:103CE0009FFD40212068FFF7C2FDE4E702207047F6
:103CF00090F83C30012B3BD030B4012380F83C30AD
:103D0000022380F83D3003685C689D6824F07004ED
:103D10000A6822435A600368164A93421AD0B3F1E4
:103D2000804F17D0A2F57C42934213D002F58062F7
:103D300093420FD002F5806293420BD002F5784295
:103D4000934207D002F57052934203D0A2F5943209
:103D5000934204D125F080054A6815439D600123F4
:103D600080F83D30002380F83C30184630BC704766
:103D70000220704700000140704770470268D36816
:103D800023F0C003D360202380F8393070470268E5
:103D9000D36823F49073D3600268536923F001035E
:103DA0005361202380F83A30704790F83930DBB205
:103DB000212B2AD18368B3F5805F16D0036A5A1C81
:103DC00002621A7803685A60C38C013B9BB2C384B9
:103DD000EBB90268D36823F08003D3600268D3682C
:103DE00043F04003D36000207047036A1B880268D9
:103DF000C3F30803536003691BB9036A0233036208
:103E0000E2E7036A01330362DEE702207047002025
:103E1000704700002DE9F04B04460268136923F453
:103E20004053C1680B4313618368026913434269BD
:103E30001343C2691A430168CB6823F4164323F085
:103E40000C031343CB600268536923F44073816908
:103E50000B435361C369B3F5004F3BD00368714A0C
:103E6000934200F0AB8002F58062934200F0A6809E
:103E7000FFF722FC4FF00009061849EB090716EB83
:103E8000000B47EB090C4FEACC0343EA5B734FEAA4
:103E9000CB0293469C4663689A009B0F10EB0B0085
:103EA00049EB0C01FCF740FF5F4DA5FB00325109C7
:103EB000642202FB110213013233A5FB03235B09C9
:103EC00003F0F00202EB011203F00F032168134428
:103ED0008B60A4E00368534A934239D002F58062B4
:103EE000934235D0FFF7E8FB83464FF0000C0618ED
:103EF0004CEB0C0716EB000847EB0C094FEAC90323
:103F000043EA58734FEAC802904699466268002116
:103F1000921841EB01031BEB08004CEB0901FCF785
:103F200003FF414DA5FB00325109642202FB11023F
:103F3000D3003233A5FB03235B095A0002F4F87265
:103F400002EB011203F00703216813448B6066E063
:103F5000FFF7C2FB80464FF00009061849EB09073E
:103F600016EB000B47EB090C4FEACC0343EA5B73FB
:103F70004FEACB0293469C4662680021921841EBBF
:103F8000010318EB0B0049EB0C01FCF7CDFE264DAD
:103F9000A5FB00325109642202FB1102D300323327
:103FA000A5FB03235B095A0002F4F87202EB01122D
:103FB00003F00703216813448B6030E0FFF78CFBAC
:103FC0004FF00009061849EB090716EB000B47EB09
:103FD000090C4FEACC0343EA5B734FEACB029346EA
:103FE0009C4663689A009B0F10EB0B0049EB0C0199
:103FF000FCF79AFE0C4DA5FB00325109642202FB2E
:10400000110213013233A5FB03235B0903F0F00215
:1040100002EB011203F00F03216813448B60BDE82B
:10402000F08B00BF001001401F85EB5158B310B555
:10403000044690F839300BB3242384F839302268D1
:10404000D36823F40053D3602046FFF7E3FE2268D1
:10405000136923F4904313612268536923F02A0300
:1040600053612268D36843F40053D3600020E063B7
:10407000202384F8393084F83A3010BD80F8383085
:1040800005F096F9D8E701207047000038B590F8A0
:104090003940E4B2202C31D1002931D0002A31D06E
:1040A00090F83830012B2FD013460446012280F8B7
:1040B000382001628384C3840025C563212280F8EF
:1040C0003920026B1148D063226B11481064226BB7
:1040D0001048D064226B156522680432206BFDF70E
:1040E00015FE23686FF040021A6084F83850226889
:1040F000536943F080035361284600E0022038BD35
:104100000120FCE70120FAE70220F8E75542000809
:10411000A14200089343000830B583B090F83A40BC
:10412000E4B2202C3DD100293ED0002A3ED090F8A8
:104130003830012B3CD013460A460446012180F852
:104140003810826283850025C563222180F83A10E9
:10415000416B1848C863616B17480864616B174866
:10416000C864616B0D6521680431606BFDF7CEFD9D
:10417000019523681A6801925A680192019A84F89D
:104180003850DA6842F48072DA602268536943F08A
:10419000010353612268536943F040035361284689
:1041A00000E0022003B030BD0120FBE70120F9E769
:1041B0000220F7E7AB42000887430008934300085A
:1041C00010B504460268D36823F4F073D360026824
:1041D000536923F00103536103685A6912F0800F99
:1041E0000BD05A6922F080025A61036B2BB1002276
:1041F0001A65006BFDF7BFFDD0B923685A6912F04C
:10420000400F0BD05A6922F040025A61636B2BB108
:1042100000221A65606BFDF7AEFD90B90020E084C6
:10422000E085E063202384F83A3084F8393010BD0B
:10423000206BFDF7EBFE2028DFD11023E363032082
:10424000F5E7606BFDF7E2FE2028E7D11023E3637A
:104250000320ECE708B5836B0268126812F4807FD4
:104260000CD10022DA8419684A6922F080024A617E
:104270001A68D36843F04003D36008BD184604F0C1
:1042800021FEFAE708B50168CB6823F04003CB6054
:10429000202380F8393004F015FE002008BD704757
:1042A00008B5806BFFF7FBFF08BD08B5836B02689C
:1042B000126812F4807F13D10022DA851968CA6867
:1042C00022F48072CA6019684A6922F001024A61C8
:1042D00019684A6922F040024A61202283F83A2094
:1042E000184604F0E3FD08BD08B590F83A30DBB29B
:1042F000222B45D18368B3F5805F0ED0036903BBE1
:1043000003685A68836A591C81621A70C38D013B25
:104310009BB2C385F3B1002033E0826A036943B9DD
:1043200003685B68C3F308031380836A0233836204
:10433000ECE703685B68DBB21380836A0133836256
:10434000E4E703685B68826A511C816203F07F03C3
:104350001370DBE70268D36823F02003D3600268A0
:10436000D36823F48073D3600268536923F0010398
:104370005361202380F83A3004F098FD002000E0DB
:10438000022008BD704708B5806BFFF7FBFF08BD32
:10439000704710B5846B23685A6994F83930DBB2E2
:1043A000212B10D023685A6902F0400294F83A3069
:1043B000DBB2222B11D0E36B43F01003E363204602
:1043C000FFF7E6FF10BD02F08002002AEAD00023CA
:1043D000E3842046FFF7D2FCE4E7002AEBD0002379
:1043E000E3852046FFF7D3FCE5E7000010B504465F
:1043F00002681368D168526913F00F0005D113F0F9
:10440000200F02D011F0200F56D100286AD012F0F0
:10441000010202D111F4907F64D013F0010F06D095
:1044200011F4807F03D0E06B40F00100E06313F0F3
:10443000040F04D01AB1E06B40F00200E06313F007
:10444000020F04D01AB1E06B40F00400E06313F0F7
:10445000080F07D011F0200F00D11AB1E26B42F023
:104460000802E263E26B002A48D013F0200F02D06A
:1044700011F0200F24D123685B6903F04003E26B45
:1044800012F0080F00D13BB32046FFF780FC2368F1
:104490005A6912F0400F1BD05A6922F040025A614B
:1044A000636B8BB11A4A1A65606BFDF7AEFC28B3DB
:1044B000606B036D984721E02046FFF715FF1DE074
:1044C0002046FFF711FFD6E72046FFF761FF15E012
:1044D0002046FFF75DFF11E02046FFF759FF00235C
:1044E000E3630BE013F0800F02D011F0800F06D1D0
:1044F00013F0400F02D011F0400F04D110BD204640
:10450000FFF753FCFAE72046FFF7BCFEF6E700BFD3
:104510001545000808B5806B0023C385C384FFF7E9
:1045200037FF08BD024A136801331360704700BFAC
:1045300084050020044B43F8301003EBC003034A0A
:1045400012685A60704700BF0811002084050020DF
:1045500008B514210020FFF7EDFF64210120FFF7CB
:10456000E9FF4FF496710220FFF7E4FF44F6206163
:104570000320FFF7DFFF4EF660210420FFF7DAFF8C
:10458000C8210520FFF7D6FF02210620FFF7D2FF42
:1045900044F620610720FFF7CDFF01210A20FFF735
:1045A000C9FF41F288310E20FFF7C4FF0A2108201D
:1045B000FFF7C0FF0F210B20FFF7BCFF42F2107185
:1045C0000D20FFF7B7FF0F210846FFF7B3FF08BD27
:1045D0000A4B53F8303043B1084A02EBC00251682D
:1045E000074A1268521A934205D8044B002243F836
:1045F0003020012070470020704700BF08110020C4
:10460000840500202DE9F04184B0884617460378E0
:104610004FF0000663F30F26437863F30706B6B244
:1046200000240CE0A21944440A2102910193009451
:10463000102392B2A0211048FEF778F82C46BDB2A4
:10464000A54215D92B1B9BB21AB2072AEADDA21983
:1046500008EB04030A210291082101910093102321
:1046600092B2A0210448FEF761F80834A4B2E6E74C
:1046700004B0BDE8F08100BFC812002000B583B0CF
:1046800000238DF804308DF805300222034901A87B
:10469000FFF7B8FF03B05DF804FB00BFF010002087
:1046A000014B5878704700BFF0100020014B18787C
:1046B000704700BFF010002010B586B014460A23E2
:1046C00002930323019305AB009301230A4601469D
:1046D0000948FEF72BF8014650B9002306E006AA68
:1046E0001A4412F8042C227001330134012BF6DD38
:1046F000084606B010BD00BFC8120020014B0122C1
:104700001A71704784050020014B00221A7170470E
:1047100084050020014B1879704700BF84050020F4
:10472000014B19440872704784050020024B987DA4
:1047300000F00400704700BF84050020024B987D04
:1047400000F00800704700BF8405002008B52D4B1D
:104750001A7E5A7680212C48FDF73EFD002831D183
:10476000284A137E43F00203137610212748FDF7F1
:1047700033FD68BB234A137E43F004031376214BB9
:104780001B7E13F0020229D01E49497E11F0020F50
:1047900024D01C498A7E42F020028A7613F004035A
:1047A00004D0184A527E12F0040F24D143BB154B9B
:1047B0005B7E13F0040F23D1124A937E03F0BF03F4
:1047C00093761DE00F4A137E03F0FD031376CCE7CA
:1047D0000C4A137E03F0FB031376D0E7002ADDD1E9
:1047E000084A527E12F0020FD8D106498A7E02F0A2
:1047F000DF028A76D2E7034A937E43F04003937642
:1048000008BD00BF840500200000024000080240EF
:1048100008B5104AD37E5B00D3764FF400410E48B2
:10482000FDF7DAFC20B90B4AD37E43F00103D376BF
:10483000084BDB7EFF2B06D023B9064A137F03F01B
:10484000FE03137708BD034A137F43F00103137778
:10485000F8E700BF840500200004024008B5D14BF2
:1048600093F8202083F821208021CF48FDF7B4FC65
:10487000002840F0FD80CB4A92F8203043F001033D
:1048800082F820300121C948FDF7A6FC002840F03D
:10489000F780C44A92F8203043F0020382F82030B7
:1048A0000821C348FDF798FC002840F0F180BD4A7C
:1048B00092F8203043F0040382F820300121BD48F3
:1048C000FDF78AFC002840F0EB80B64A92F82030D1
:1048D00043F0080382F820301021B548FDF77CFC36
:1048E000002840F0E580AF4A92F8203043F01003F2
:1048F00082F820300221AD48FDF76EFC002840F020
:10490000DF80A84A92F8203043F0200382F820305C
:104910004021A848FDF760FC002840F0D980A14A5A
:1049200092F8203043F0400382F820308021A248E2
:10493000FDF752FC002840F0D3809A4A92F82030CC
:1049400063F07F0382F82030964B93F8203013F009
:10495000010200F0CD80934991F8211011F0010F70
:1049600000F0C6808F4991F8222042F0010281F8C0
:10497000222013F0020200F0CD808A4991F8211024
:1049800011F0020F00F0C680864991F8222042F013
:10499000020281F8222013F0040200F0CD80814948
:1049A00091F8211011F0040F00F0C6807D4991F8B4
:1049B000222042F0040281F8222013F0080200F0C5
:1049C000CD80784991F8211011F0080F00F0C680D1
:1049D000744991F8222042F0080281F8222013F055
:1049E000100200F0CD806F4991F8211011F0100FE6
:1049F00000F0C6806B4991F8222042F0100281F845
:104A0000222013F0200200F0D980664991F821108D
:104A100011F0200F00F0D280624991F8222042F07C
:104A2000200281F8222013F0400200F0D9805D4975
:104A300091F8211011F0400F00F0D280594991F8FF
:104A4000222042F0400281F822205BB2002BC0F20B
:104A5000D980002B0BDB534B93F92130002B06DB65
:104A6000504A92F8223003F07F0382F8223008BDCA
:104A70004C4A92F8203003F0FE0382F8203001E720
:104A8000484A92F8203003F0FD0382F8203007E70F
:104A9000444A92F8203003F0FB0382F820300DE7FF
:104AA000404A92F8203003F0F70382F8203013E7F1
:104AB0003C4A92F8203003F0EF0382F8203019E7E7
:104AC000384A92F8203003F0DF0382F820301FE7E5
:104AD000344A92F8203003F0BF0382F8203025E7F3
:104AE000304A92F8203003F07F0382F820302BE721
:104AF000002A7FF43EAF2B4A92F8212012F0010FDA
:104B00007FF437AF274991F8222002F0FE0281F8A6
:104B100022202EE7002A7FF43EAF224A92F821207D
:104B200012F0020F7FF437AF1E4991F8222002F0F5
:104B3000FD0281F822202EE7002A7FF43EAF194AB9
:104B400092F8212012F0040F7FF437AF154991F845
:104B5000222002F0FB0281F822202EE7002A7FF4B7
:104B60003EAF104A92F8212012F0080F7FF437AFC1
:104B70000C4991F8222002F0F70281F822202EE75A
:104B8000002A7FF43EAF074A92F8212012F0100F5E
:104B90007FF437AF034991F8222002F0EF0281F849
:104BA00022202EE784050020001002400008024069
:104BB000000402400000024000140240002A7FF47A
:104BC00032AF174A92F8212012F0200F7FF42BAF5A
:104BD000134991F8222002F0DF0281F8222022E717
:104BE000002A7FF432AF0E4A92F8212012F0400FD3
:104BF0007FF42BAF0A4991F8222002F0BF0281F81E
:104C0000222022E7064A92F92120002ABFF621AF8E
:104C1000034A92F8223063F07F0382F8223026E7BD
:104C200084050020024B187F00F00100704700BF90
:104C300084050020024B93F8220000F00400704726
:104C400084050020024B93F8220000F00800704712
:104C500084050020024B93F8220000F010007047FA
:104C600084050020024B93F8220000F020007047DA
:104C700084050020024B93F8220000F001007047E9
:104C800084050020024B93F8220000F002007047D8
:104C900084050020024B93F8220000F0400070478A
:104CA00084050020024B93F8220000F0800070473A
:104CB0008405002010B5FFF7DDFF10B9FFF7E2FF14
:104CC00020B1194A937D43F001039375FFF7E2FF8A
:104CD00010B9FFF7E7FF20B1134A937D43F00203B9
:104CE0009375114B9C7D14F0010F0BD0FFF7C2FFA1
:104CF00040B9FFF7C7FF28B984F0040424F0010489
:104D0000094B9C75084B9C7D14F0020F0BD0FFF7EC
:104D1000C1FF40B9FFF7C6FF28B984F0080424F0AA
:104D20000204014B9C7510BD84050020024B01223A
:104D300083F82320704700BF84050020024B002227
:104D400083F82320704700BF84050020014B93F8AF
:104D50002300704784050020024B012283F82420A1
:104D6000704700BF84050020024B002283F82420F6
:104D7000704700BF84050020014B93F82400704762
:104D800084050020024B012283F82520704700BFD4
:104D900084050020024B002283F82520704700BFC5
:104DA00084050020014B93F82500704784050020FE
:104DB000034A92F8263023F0020382F82630704727
:104DC00084050020034A92F8263043F0020382F85B
:104DD0002630704784050020034A92F8263043F0BD
:104DE000080382F82630704784050020034A92F8B1
:104DF000263023F0080382F826307047840500200F
:104E0000034A92F8263043F0040382F826307047B4
:104E100084050020034A92F8263023F0040382F828
:104E20002630704784050020034A92F8263063F04C
:104E30007F0382F82630704784050020034A92F8E9
:104E4000263003F07F0382F8263070478405002067
:104E5000034A92F8263043F0400382F82630704728
:104E600084050020034A92F8263023F0400382F89C
:104E70002630704784050020034A92F8263043F01C
:104E8000200382F82630704784050020034A92F8F8
:104E9000263023F0200382F8263070478405002056
:104EA000034A92F8263043F0100382F82630704708
:104EB00084050020034A92F8263023F0100382F87C
:104EC0002630704784050020034A92F8263023F0EC
:104ED000010382F82630704784050020034A92F8C7
:104EE000263043F0010382F8263070478405002005
:104EF000014B93F82600704784050020024B93F87D
:104F0000260000F0F000704784050020024B93F863
:104F1000260000F00400704784050020024B987EB4
:104F200000F06000704700BF8405002008B507F05E
:104F3000A9FB28B3244A92F8273043F0010382F8F2
:104F4000273007F0A7FB18B31F4A92F8273043F029
:104F5000020382F8273002F083F908B31A4A92F864
:104F6000273043F0040382F8273006F021FF18BBF6
:104F7000154A92F8273023F0080382F8273008BD3D
:104F8000114A92F8273023F0010382F82730D8E73E
:104F90000D4A92F8273023F0020382F82730DAE72F
:104FA00002F066F90028D9D1074A92F8273023F099
:104FB000040382F82730D8E7034A92F8273043F0F9
:104FC000080382F82730DAE784050020024B93F8C3
:104FD000270000F0030070478405002010B5FFF79C
:104FE000B5FE28B9FFF7C8FE044610B1402400E022
:104FF000402403F0A7FD10B144F02004E4B2FFF711
:10500000D1FE10B144F01004E4B2FFF7DFFF10B19D
:1050100044F00104E4B201F025FE10B164F07F0415
:10502000E4B202F01DF980B144F00404E4B206F0E9
:10503000BFFE10B144F00204E4B202F07FF810B1F8
:1050400044F00804E4B2204610BD02F011F9002833
:10505000EDD0E9E710B5044610F0400F0AD0FFF795
:105060005DFF08B310F0200F25D0FFF757FF10F0B9
:10507000400F23D014F0200F23D114F0100F02D0D2
:10508000FFF7D0FD38B314F0800F29D114F0010FD1
:1050900040D114F0040F46D114F0020F50D114F097
:1050A000080F56D1204610BD04F0BF04FFF746FE9E
:1050B000FFF75AFEDEE7FFF741FED6E7FFF754FEA3
:1050C000D8E70420FFF784FA0128D6D004F0DF04E3
:1050D00003F030FDD1E704F0EF04FFF75BFED2E709
:1050E00001F0C8FD30B904F07F0401F015FD01F0B6
:1050F00063FDCBE701F0BEFD10F0080F07D001F013
:10510000B9FD10F0800FC1D101F056FDBEE701F0EE
:1051100003FDF4E707F0F4FAFFF758FF0028B8D1D1
:1051200004F0FE04B5E702F059FA02F099F80028FD
:10513000B2D102F09DF80028AED104F0FB04ABE739
:1051400006F03CFD06F034FE0028A8D104F0FD0472
:10515000A5E701F0F3FF0028A4D104F0F704A1E7CC
:10516000024B93F8270000F00400704784050020EC
:10517000024B93F8270000F00800704784050020D8
:10518000014B93F8270070478405002008B5704B49
:1051900093F82830052B00F2A180DFE803F0030A22
:1051A0009582673CFFF7BAFE20B1694B012283F874
:1051B000282008BD0420FFF70BFA01280AD0FFF7CA
:1051C00031FD60B9FFF702FF70B1614B042283F833
:1051D0002820EEE75E4B022283F82820E9E75C4BAB
:1051E000032283F82820E4E701F09CFC0028ECD19E
:1051F00001F0E8FC0028E8D101F0A0FF30B9FFF78A
:10520000AFFF18B9FFF7B4FF0028D2D0504B0522EA
:1052100083F82820CDE7FFF781FE20B14C4B012217
:1052200083F82820C5E70420FFF7D2F901280AD027
:10523000FFF7F8FC60B9FFF7C9FE70B1444B0422D8
:1052400083F82820B5E7424B022283F82820B0E7F4
:105250003F4B032283F82820ABE701F063FC0028D2
:10526000ECD101F0AFFC0028A3D0E7E7FFF756FE32
:1052700020B1374B012283F828209AE70420FFF75A
:10528000A7F9012808D0FFF7CDFC002891D0304BBA
:10529000032283F828208CE72D4B022283F8282054
:1052A00087E7FFF73BFE20B1294B012283F8282036
:1052B0007FE70420FFF78CF901287FF47AAF244BB5
:1052C000022283F8282074E7FFF728FE00283FF425
:1052D00070AF1F4B012283F828206AE7FFF71EFEFC
:1052E00020B11B4B012283F8282062E70420FFF73E
:1052F0006FF901280AD0FFF795FC60B9FFF766FE49
:1053000070B1134B042283F8282052E7104B02227D
:1053100083F828204DE70E4B032283F8282048E726
:1053200001F000FC0028ECD101F04CFC0028E8D191
:1053300001F004FF38B9FFF713FF20B9FFF718FF9A
:1053400000283FF436AF024B052283F8282030E7CF
:1053500084050020014B93F8280070478405002045
:10536000014B83F8280070478405002010B568B110
:10537000044610F0010F0CD114F0040F0CD114F0FE
:10538000020F0CD114F0080F0CD110BDFFF7E8FF8D
:10539000FBE707F09BF9EFE702F014F9EFE706F0FF
:1053A000F5FBEFE701F07AFE0028EED101F08EFE6A
:1053B0000028EAD101F0AAFE01F0B8FEE5E70000FE
:1053C00010B52A4B93F8293013F0010F0FD1FFF7D6
:1053D00041FC10B9FFF746FC40B1244B93F829304B
:1053E00013F0030F02D1FFF7B5FF40BB10BD1F4CF8
:1053F00094F82A00FFF72EFE84F82A0094F82B3048
:10540000013BDBB284F82B3080B1002BDFD1174C8D
:1054100094F8293023F0010384F8293007F070F95B
:10542000002084F82A00FFF79BFFD0E794F829308A
:1054300023F0010384F82930FFF792FFC7E703F058
:1054400013FBFFF7CBFD094C84F82A00FFF78EFF12
:1054500094F82A30002BC9D0642284F82B2094F8C9
:10546000292042F0010284F82920BFE784050020AA
:1054700070B503F00BFB044600F00F06444B93F8A5
:10548000293013F0020F1BD1414B93F8293013F050
:10549000030F14D19EB13E4A43F0020382F8293033
:1054A000642382F82C3014F0010F35D114F0020F70
:1054B00040D114F0040F4BD114F0080F59D170BD36
:1054C000334D95F82C30013B85F82C3095F82D00A4
:1054D000FFF7C0FD85F82D0078B995F8293023F045
:1054E000020385F82930FFF735FF042801D005288D
:1054F000CAD10020FFF734FFC6E7254B93F82C30C4
:10550000002BC1D1224A92F8293023F0020382F8FD
:10551000293007F0F5F8B7E707F0B4F80028C5D050
:1055200007F0C0F81A4A92F82D3043F0010382F8D0
:105530002D30BBE707F0AEF80028BAD007F0BCF872
:10554000134A92F82D3043F0010382F82D30B0E772
:1055500001F086FE18B901F08BFE0028ACD002F0F5
:1055600031F80B4A92F82D3043F0040382F82D30C5
:10557000A2E706F01DFC0028A1D006F007FB044AB4
:1055800092F82D3043F0020382F82D3097E700BFE8
:105590008405002008B5FFF7DDFE022800D008BD15
:1055A00003F062FA0020FFF7DBFE03F0C3FAF6E730
:1055B00008B5FFF7AFF800B908BDFFF7A5F8154B20
:1055C0009B7A242B1FD009D9262B19D01ED3AA2BA6
:1055D0000DD0BB2BF0D103F0E9FAEDE7212B09D078
:1055E000222B0AD0042BE7D1FFF748F8E4E7FFF7B6
:1055F000D1FFE1E705F016FCDEE706F091FDDBE701
:1056000007F038FCD8E702F02DFBD5E702F03CFBB1
:10561000D2E700BF8405002008B5FFF79BFE0128F4
:105620000FD002280DD003280BD0042809D005285C
:105630000CD0FFF7CBFC70B10D4B042283F82E2069
:1056400003E00B4B022283F82E2008BD084B0322F7
:1056500083F82E20F9E703F03FFA20B9044B00222B
:1056600083F82E20F1E7024B012283F82E20ECE78D
:1056700084050020014B93F82E007047840500201C
:1056800008B5FFF74BFC10F0200F08D1FFF746FCE0
:1056900010F0400F06D1FFF7C5FA30B908BDFFF78B
:1056A00045FBF3E7FFF758FBF5E7FFF76BFBF5E783
:1056B00010B5414B93F82F4004F0FC0483F82F40C1
:1056C000FFF73CF820B144F002043B4B83F82F4035
:1056D000FFF72CF800283ED0374A92F82F3043F0DD
:1056E000040382F82F30FFF75DFB00283BD0324ADD
:1056F00092F82F3043F0080382F82F30FFF726FB93
:10570000C8B32D4A92F82F3043F0100382F82F309F
:10571000FFF732FBB8B3284A92F82F3043F020034A
:1057200082F82F3001F00AFD10F0010F33D0224A29
:1057300092F82F3043F0400382F82F3001F0FEFC46
:1057400010F0020F2FD11C4A92F82F3003F07F0384
:1057500082F82F3010BD184A92F82F3023F004033E
:1057600082F82F30BFE7144A92F82F3023F0080355
:1057700082F82F30C2E7104A92F82F3023F010033E
:1057800082F82F30C4E70C4A92F82F3023F0200320
:1057900082F82F30C6E7084A92F82F3023F04003F2
:1057A00082F82F30CAE7044A92F82F3063F07F0363
:1057B00082F82F30CEE700BF84050020014B93F81C
:1057C0002F0070478405002008B506F033FF06F06F
:1057D000D3F901F0A3FA08BD014B01221A707047FA
:1057E00008000020014B00221A70704708000020BA
:1057F000014B1878704700BF08000020024B0122BF
:1058000083F83020704700BF84050020024B00223F
:1058100083F83020704700BF84050020014B93F8C7
:10582000300070478405002008B5894B5B78082B51
:1058300000F2FF80DFE813F02B003C004C001A0060
:1058400009005D009900F600FE000E20FEF7C0FE84
:10585000012840F0EE8006F085F97D4B03225A7056
:1058600040F6B8310E20FEF765FEE2E00E20FEF7AE
:10587000AFFE012840F0DD8001F046FA744B0022B3
:105880005A7040F6B8310E20FEF754FED1E00E20DB
:10589000FEF79EFE012840F0CC8006F0D5FE6C4B52
:1058A00001225A7040F6B8310E20FEF743FEC0E0E8
:1058B0000E20FEF78DFE012840F0BB8006F0D8FEDA
:1058C000634B02225A7064210E20FEF733FEB0E0D3
:1058D0000E20FEF77DFE012840F0AB8006F0BEFEF4
:1058E0005B4B05225A7040F6B8310E20FEF722FEBF
:1058F0009FE006F0C7FE10B906F0CCFE40B1554A55
:1059000092F8313043F0030382F8313006F0FEFEA6
:1059100001F0A6FC10B901F0ABFC40B14D4A92F881
:10592000313043F0040382F8313001F04BFE06F0D1
:105930003FFA38B9474B93F831306BB9444B0722E3
:105940005A7076E0434A92F8313043F0080382F807
:10595000313006F01BF9EDE73D4B06225A7042F25A
:1059600010710E20FEF7E6FD63E03A4B93F83130FC
:1059700013F0030F18D1374B93F8313013F0040FA5
:105980002AD1344B93F8313013F0080F36D1314B14
:1059900093F83130002B3FD12E4B002283F8312079
:1059A0002B4B07225A7044E006F0B0FE06F06AFE68
:1059B00030B9284A92F8313023F0010382F83130AF
:1059C00006F068FE0028D6D1224A92F8313023F042
:1059D000020382F83130CEE701F000FE01F040FC16
:1059E0000028CED101F044FC0028CAD1194A92F80F
:1059F000313023F0040382F83130C2E706F0DEF8DC
:105A000006F0D6F90028C2D1124A92F8313023F0BC
:105A1000080382F83130BAE70E20FEF7D9FD0128DD
:105A200007D1B9E7FFF7EAFEFFF7DCFE084B0822D3
:105A30005A7008BDFFF7DCFE0028FAD0044B0022A4
:105A40005A7040F6B8310E20FEF774FDF1E700BF42
:105A5000080000208405002008B503F03FFAFEF797
:105A600075FEFEF7D5FEFEF7F9FEFFF723F901F00C
:105A7000C1FB06F079F906F0E5FE01F08FF901F0BF
:105A8000A2FB06F0CBF801F0A3F8FFF7F9FDFFF752
:105A900097FCFFF7EDFCFFF779FBFFF709FEFFF737
:105AA000BBFDFFF7C1FEFFF7B9FE50B905F01CFBC7
:105AB00003F01CFA03F04EF905F050FB02F0F6F883
:105AC00008BDFFF733FAF1E7002304E0034A64213D
:105AD00022F813100133032BF8DD7047B8050020BE
